{
  "contractName": "SimpleLendingContract",
  "abi": [
    {
      "inputs": [],
      "name": "availableBalance",
      "outputs": [
        {
          "internalType": "uint256",
          "name": "",
          "type": "uint256"
        }
      ],
      "stateMutability": "view",
      "type": "function",
      "constant": true
    },
    {
      "inputs": [
        {
          "internalType": "address",
          "name": "",
          "type": "address"
        }
      ],
      "name": "loans",
      "outputs": [
        {
          "internalType": "address",
          "name": "borrower",
          "type": "address"
        },
        {
          "internalType": "uint256",
          "name": "requestedAmount",
          "type": "uint256"
        },
        {
          "internalType": "uint256",
          "name": "repayAmount",
          "type": "uint256"
        },
        {
          "internalType": "uint256",
          "name": "interestRate",
          "type": "uint256"
        },
        {
          "internalType": "enum SimpleLendingContract.LoanState",
          "name": "state",
          "type": "uint8"
        },
        {
          "internalType": "uint256",
          "name": "requestedDate",
          "type": "uint256"
        }
      ],
      "stateMutability": "view",
      "type": "function",
      "constant": true
    },
    {
      "inputs": [],
      "name": "addFunds",
      "outputs": [],
      "stateMutability": "payable",
      "type": "function",
      "payable": true
    },
    {
      "inputs": [
        {
          "internalType": "uint256",
          "name": "amount",
          "type": "uint256"
        }
      ],
      "name": "requestLoan",
      "outputs": [],
      "stateMutability": "nonpayable",
      "type": "function"
    },
    {
      "inputs": [
        {
          "internalType": "address",
          "name": "borrower",
          "type": "address"
        }
      ],
      "name": "getLoanDetails",
      "outputs": [
        {
          "components": [
            {
              "internalType": "address",
              "name": "borrower",
              "type": "address"
            },
            {
              "internalType": "uint256",
              "name": "requestedAmount",
              "type": "uint256"
            },
            {
              "internalType": "uint256",
              "name": "repayAmount",
              "type": "uint256"
            },
            {
              "internalType": "uint256",
              "name": "interestRate",
              "type": "uint256"
            },
            {
              "internalType": "enum SimpleLendingContract.LoanState",
              "name": "state",
              "type": "uint8"
            },
            {
              "internalType": "uint256",
              "name": "requestedDate",
              "type": "uint256"
            }
          ],
          "internalType": "struct SimpleLendingContract.Loan",
          "name": "",
          "type": "tuple"
        }
      ],
      "stateMutability": "view",
      "type": "function",
      "constant": true
    },
    {
      "inputs": [
        {
          "internalType": "address",
          "name": "borrower",
          "type": "address"
        }
      ],
      "name": "fundLoan",
      "outputs": [],
      "stateMutability": "nonpayable",
      "type": "function"
    },
    {
      "inputs": [
        {
          "internalType": "address",
          "name": "borrower",
          "type": "address"
        }
      ],
      "name": "getRepayAmount",
      "outputs": [
        {
          "internalType": "uint256",
          "name": "",
          "type": "uint256"
        }
      ],
      "stateMutability": "view",
      "type": "function",
      "constant": true
    },
    {
      "inputs": [],
      "name": "repayLoan",
      "outputs": [],
      "stateMutability": "payable",
      "type": "function",
      "payable": true
    }
  ],
  "bytecode": "0x608060405234801561001057600080fd5b50610f4a806100206000396000f3fe60806040526004361061007b5760003560e01c8063ab2f0e511161004e578063ab2f0e5114610132578063e48f6faf1461015d578063e8a7da8e14610186578063f966ade7146101c35761007b565b806373b4086b146100805780638d5d3429146100c25780639be5b2bd146100eb578063a26759cb14610128575b600080fd5b34801561008c57600080fd5b506100a760048036038101906100a2919061094b565b6101cd565b6040516100b996959493929190610a17565b60405180910390f35b3480156100ce57600080fd5b506100e960048036038101906100e49190610aa4565b610236565b005b3480156100f757600080fd5b50610112600480360381019061010d919061094b565b6103c1565b60405161011f9190610ad1565b60405180910390f35b610130610411565b005b34801561013e57600080fd5b5061014761042e565b6040516101549190610ad1565b60405180910390f35b34801561016957600080fd5b50610184600480360381019061017f919061094b565b610434565b005b34801561019257600080fd5b506101ad60048036038101906101a8919061094b565b6105f6565b6040516101ba9190610b94565b60405180910390f35b6101cb6106e2565b005b60006020528060005260406000206000915090508060000160009054906101000a900473ffffffffffffffffffffffffffffffffffffffff16908060010154908060020154908060030154908060040160009054906101000a900460ff16908060050154905086565b60008111610279576040517f08c379a000000000000000000000000000000000000000000000000000000000815260040161027090610c32565b60405180910390fd5b60006102848261081a565b90506040518060c001604052803373ffffffffffffffffffffffffffffffffffffffff16815260200183815260200182815260200160028152602001600060038111156102d4576102d36109a0565b5b8152602001428152506000803373ffffffffffffffffffffffffffffffffffffffff1673ffffffffffffffffffffffffffffffffffffffff16815260200190815260200160002060008201518160000160006101000a81548173ffffffffffffffffffffffffffffffffffffffff021916908373ffffffffffffffffffffffffffffffffffffffff16021790555060208201518160010155604082015181600201556060820151816003015560808201518160040160006101000a81548160ff021916908360038111156103ab576103aa6109a0565b5b021790555060a082015181600501559050505050565b6000806000808473ffffffffffffffffffffffffffffffffffffffff1673ffffffffffffffffffffffffffffffffffffffff16815260200190815260200160002090508060020154915050919050565b6104263460015461083790919063ffffffff16565b600181905550565b60015481565b60008060008373ffffffffffffffffffffffffffffffffffffffff1673ffffffffffffffffffffffffffffffffffffffff16815260200190815260200160002090506000600381111561048a576104896109a0565b5b8160040160009054906101000a900460ff1660038111156104ae576104ad6109a0565b5b146104ee576040517f08c379a00000000000000000000000000000000000000000000000000000000081526004016104e590610cc4565b60405180910390fd5b80600101546001541015610537576040517f08c379a000000000000000000000000000000000000000000000000000000000815260040161052e90610d56565b60405180910390fd5b8060000160009054906101000a900473ffffffffffffffffffffffffffffffffffffffff1673ffffffffffffffffffffffffffffffffffffffff166108fc82600101549081150290604051600060405180830381858888f193505050501580156105a5573d6000803e3d6000fd5b5060018160040160006101000a81548160ff021916908360038111156105ce576105cd6109a0565b5b02179055506105ec816001015460015461086390919063ffffffff16565b6001819055505050565b6105fe61088a565b60008060008473ffffffffffffffffffffffffffffffffffffffff1673ffffffffffffffffffffffffffffffffffffffff16815260200190815260200160002090506040518060c001604052808260000160009054906101000a900473ffffffffffffffffffffffffffffffffffffffff1673ffffffffffffffffffffffffffffffffffffffff1681526020018260010154815260200182600201548152602001826003015481526020018260040160009054906101000a900460ff1660038111156106cd576106cc6109a0565b5b81526020018260050154815250915050919050565b60008060003373ffffffffffffffffffffffffffffffffffffffff1673ffffffffffffffffffffffffffffffffffffffff168152602001908152602001600020905060016003811115610738576107376109a0565b5b8160040160009054906101000a900460ff16600381111561075c5761075b6109a0565b5b1461079c576040517f08c379a000000000000000000000000000000000000000000000000000000000815260040161079390610dc2565b60405180910390fd5b806002015434146107e2576040517f08c379a00000000000000000000000000000000000000000000000000000000081526004016107d990610e2e565b60405180910390fd5b6107ea610411565b60028160040160006101000a81548160ff02191690836003811115610812576108116109a0565b5b021790555050565b6000671bc16d674ec80000826108309190610e7d565b9050919050565b60008082846108469190610e7d565b90508381101561085957610858610eb1565b5b8091505092915050565b60008282111561087657610875610eb1565b5b81836108829190610ee0565b905092915050565b6040518060c00160405280600073ffffffffffffffffffffffffffffffffffffffff168152602001600081526020016000815260200160008152602001600060038111156108db576108da6109a0565b5b8152602001600081525090565b600080fd5b600073ffffffffffffffffffffffffffffffffffffffff82169050919050565b6000610918826108ed565b9050919050565b6109288161090d565b811461093357600080fd5b50565b6000813590506109458161091f565b92915050565b600060208284031215610961576109606108e8565b5b600061096f84828501610936565b91505092915050565b6109818161090d565b82525050565b6000819050919050565b61099a81610987565b82525050565b7f4e487b7100000000000000000000000000000000000000000000000000000000600052602160045260246000fd5b600481106109e0576109df6109a0565b5b50565b60008190506109f1826109cf565b919050565b6000610a01826109e3565b9050919050565b610a11816109f6565b82525050565b600060c082019050610a2c6000830189610978565b610a396020830188610991565b610a466040830187610991565b610a536060830186610991565b610a606080830185610a08565b610a6d60a0830184610991565b979650505050505050565b610a8181610987565b8114610a8c57600080fd5b50565b600081359050610a9e81610a78565b92915050565b600060208284031215610aba57610ab96108e8565b5b6000610ac884828501610a8f565b91505092915050565b6000602082019050610ae66000830184610991565b92915050565b610af58161090d565b82525050565b610b0481610987565b82525050565b610b13816109f6565b82525050565b60c082016000820151610b2f6000850182610aec565b506020820151610b426020850182610afb565b506040820151610b556040850182610afb565b506060820151610b686060850182610afb565b506080820151610b7b6080850182610b0a565b5060a0820151610b8e60a0850182610afb565b50505050565b600060c082019050610ba96000830184610b19565b92915050565b600082825260208201905092915050565b7f4c6f616e20616d6f756e74206d7573742062652067726561746572207468616e60008201527f2030000000000000000000000000000000000000000000000000000000000000602082015250565b6000610c1c602283610baf565b9150610c2782610bc0565b604082019050919050565b60006020820190508181036000830152610c4b81610c0f565b9050919050565b7f4c6f616e206973206e6f7420696e20746865207265717565737465642073746160008201527f7465000000000000000000000000000000000000000000000000000000000000602082015250565b6000610cae602283610baf565b9150610cb982610c52565b604082019050919050565b60006020820190508181036000830152610cdd81610ca1565b9050919050565b7f496e73756666696369656e742066756e647320746f2066756e6420746865206c60008201527f6f616e0000000000000000000000000000000000000000000000000000000000602082015250565b6000610d40602383610baf565b9150610d4b82610ce4565b604082019050919050565b60006020820190508181036000830152610d6f81610d33565b9050919050565b7f4c6f616e206973206e6f7420696e207468652066756e64656420737461746500600082015250565b6000610dac601f83610baf565b9150610db782610d76565b602082019050919050565b60006020820190508181036000830152610ddb81610d9f565b9050919050565b7f496e636f72726563742072657061796d656e7420616d6f756e74000000000000600082015250565b6000610e18601a83610baf565b9150610e2382610de2565b602082019050919050565b60006020820190508181036000830152610e4781610e0b565b9050919050565b7f4e487b7100000000000000000000000000000000000000000000000000000000600052601160045260246000fd5b6000610e8882610987565b9150610e9383610987565b9250828201905080821115610eab57610eaa610e4e565b5b92915050565b7f4e487b7100000000000000000000000000000000000000000000000000000000600052600160045260246000fd5b6000610eeb82610987565b9150610ef683610987565b9250828203905081811115610f0e57610f0d610e4e565b5b9291505056fea26469706673582212204076408a8da1b8be0573456cc63df438f6fbd076359f62d35ccd77bdef4714c364736f6c63430008130033",
  "immutableReferences": {},
  "source": "// SPDX-License-Identifier: MIT\r\npragma solidity ^0.8.19;\r\n\r\nimport './SafeMath.sol';\r\n\r\ncontract SimpleLendingContract {\r\n\r\n    using SafeMath for uint;\r\n\r\n    // Enum to represent the state of the loan\r\n    enum LoanState { Requested, Funded, Repaid, Defaulted }\r\n\r\n    // Struct to represent the loan details\r\n    struct Loan {\r\n        address borrower;\r\n        uint requestedAmount;\r\n        uint repayAmount;\r\n        uint interestRate; // in percentage\r\n        LoanState state;\r\n        uint requestedDate;\r\n    }\r\n\r\n    // Mapping to store loans by borrower address\r\n    mapping(address => Loan) public loans;\r\n\r\n    // Variable to store the available balance in the contract\r\n    uint public availableBalance;\r\n\r\n    // Function to add funds to the contract\r\n    function addFunds() public payable {\r\n        availableBalance = availableBalance.add(msg.value);\r\n    }\r\n\r\n    // Function to request a loan\r\n    function requestLoan(uint amount) public {\r\n        require(amount > 0, \"Loan amount must be greater than 0\");\r\n\r\n        // Calculate repay amount based on the loan details\r\n        uint repayAmount = calculateRepayAmount(amount);\r\n\r\n        // Create a new loan\r\n        loans[msg.sender] = Loan({\r\n            borrower: msg.sender,\r\n            requestedAmount: amount,\r\n            repayAmount: repayAmount,\r\n            interestRate: 2,\r\n            state: LoanState.Requested,\r\n            requestedDate: block.timestamp\r\n        });\r\n    }\r\n\r\n    // Function to get loan details in a more readable format\r\n    function getLoanDetails(address borrower) external view returns (Loan memory) {\r\n        Loan storage loan = loans[borrower];\r\n        return Loan({\r\n            borrower: loan.borrower,\r\n            requestedAmount: loan.requestedAmount,\r\n            repayAmount: loan.repayAmount,\r\n            interestRate: loan.interestRate,\r\n            state: loan.state,\r\n            requestedDate: loan.requestedDate\r\n        });\r\n    }\r\n\r\n    // Function to fund a loan\r\n    function fundLoan(address borrower) public {\r\n        // Get the loan details\r\n        Loan storage loan = loans[borrower];\r\n\r\n        // Check if the loan is in the requested state\r\n        require(loan.state == LoanState.Requested, \"Loan is not in the requested state\");\r\n\r\n        // Check if there are sufficient funds to fund the loan\r\n        require(availableBalance >= loan.requestedAmount, \"Insufficient funds to fund the loan\");\r\n\r\n        // Transfer funds from contract to borrower\r\n        payable(loan.borrower).transfer(loan.requestedAmount);\r\n\r\n        // Update loan state to funded\r\n        loan.state = LoanState.Funded;\r\n\r\n        // Deduct the funded amount from available balance\r\n        availableBalance = availableBalance.sub(loan.requestedAmount);\r\n    }\r\n\r\n    // Function to get the repay amount for a loan\r\n    function getRepayAmount(address borrower) external view returns (uint) {\r\n        Loan storage loan = loans[borrower];\r\n        return loan.repayAmount;\r\n    }\r\n\r\n    // Function to repay a loan\r\n    function repayLoan() public payable {\r\n        // Get the loan details\r\n        Loan storage loan = loans[msg.sender];\r\n\r\n        // Check if the loan is in the funded state\r\n        require(loan.state == LoanState.Funded, \"Loan is not in the funded state\");\r\n\r\n        // Check if the repayment amount is sufficient\r\n        require(msg.value == loan.repayAmount, \"Incorrect repayment amount\");\r\n\r\n        //Return msg.value to contract\r\n        addFunds();\r\n\r\n        // Update loan state to repaid\r\n        loan.state = LoanState.Repaid;\r\n    }\r\n\r\n    // Function to calculate the repay amount based on loan details\r\n    function calculateRepayAmount(uint amount) internal pure returns (uint) {\r\n        // Add the amount and a constant interest of 2 ethers\r\n        return amount + 2 ether;\r\n    }\r\n}\r\n",
  "sourcePath": "C:\\Users\\ameer\\Desktop\\app1\\contracts\\SimpleLendingContract.sol",
  "compiler": {
    "name": "solc",
    "version": "0.8.19+commit.7dd6d404.Emscripten.clang"
  },
  "schemaVersion": "3.4.16",
  "updatedAt": "2023-12-08T16:28:51.079Z",
  "networkType": "ethereum",
  "devdoc": {
    "kind": "dev",
    "methods": {},
    "version": 1
  },
  "userdoc": {
    "kind": "user",
    "methods": {},
    "version": 1
  }
}